:020000040800F2
:1000000020150020350200084D3B0008C5320008CD
:10001000AD380008E10E00088D3D0008000000002A
:10002000000000000000000000000000693B000824
:100030007112000800000000513B00086B3B0008F3
:100040004F0200084F0200084F0200084F0200084C
:100050004F0200084F0200084F0200084F0200083C
:100060004F0200084F0200084F0200084F0200082C
:100070004F0200084F0200084F0200084F0200081C
:100080004F0200084F0200084F0200084F0200080C
:100090004F0200084F0200084F0200084F020008FC
:1000A0004F0200084F0200084F0200084F020008EC
:1000B0004F0200084F0200084F0200084F020008DC
:1000C0004F0200084F0200084F0200084F020008CC
:1000D0004F0200087D3D00084F0200084F02000853
:1000E0004F0200084F0200084F0200084F020008AC
:1000F0004F0200084F0200084F0200084F0200089C
:100100004F0200084F020008893B00084F02000818
:100110004F0200084F020008993B00084F020008F8
:100120004F0200084F0200084F0200084F0200086B
:100130004F0200084F0200084F0200084F0200085B
:100140004F0200084F0200084F0200084F0200084B
:100150004F0200084F0200084F0200084F0200083B
:100160004F0200084F0200084F0200084F0200082B
:100170004F0200084F0200084F0200080000000074
:100180004F0200084F02000800F002F800F043F8A8
:100190000AA090E8000C82448344AAF10107DA45E2
:1001A00001D100F038F8AFF2090EBAE80F0013F0F1
:1001B000010F18BFFB1A43F001031847986A0000AB
:1001C000B86A0000103A24BF78C878C1FAD852073C
:1001D00024BF30C830C144BF04680C6070470000C1
:1001E0000023002400250026103A28BF78C1FBD840
:1001F000520728BF30C148BF0B607047752900F017
:10020000F580002070471FB506F0D0FC00F064FABE
:100210001FBD10B510BD00F003FB1146FFF7F3FF43
:1002200006F04FFC00F021FB03B4FFF7F2FF03BC24
:1002300000F024FB0948804709480047FEE7FEE735
:10024000FEE7FEE7FEE7FEE7FEE7FEE7FEE7FEE786
:1002500004480549054A064B70470000753B0008F5
:1002600089010008200F0020201500202011002007
:100270002011002053EA020C00F069802DE9F04BB8
:100280004FF00006002B1FBFB3FA83F503FA05F405
:1002900024FA05F65E4012BF1643B2FA82F502FA5E
:1002A00005F4C5F120051EBF22FA05FC44EA0C0442
:1002B000203556EA044C4FEA144418BF641C4FF032
:1002C00000084FF00009904271EB030C39D300296C
:1002D00019BFB1FA81F701FA07F6B0FA80F700FA10
:1002E00007F6C7F120071EBF20FA07FC46EA0C06F6
:1002F0002037B6FBF4FCA7EB0507103F07F01F0BF8
:10030000CBF120060CFA0BFB2CFA06F644BFB346E1
:100310000026202FA4BF5E464FF0000B5BEA060CC0
:1003200008BF4FF0010B19EB0B09ABFB027C48EB4C
:100330000608C01B06FB02CC0BFB03CC71EB0C01C7
:10034000C1E70B46024641464846BDE8F08B13B56F
:100350004FF000004FF00001AFF30080BDE81C40FB
:10036000704700000FB47CB50C0009AA009001D0C2
:100370002044401E084B7B4469460190089800F0D9
:1003800026FA05461CB10020694600F033FA2846DB
:100390007CBC5DF814FB00008504000070B50446C9
:1003A00085690068C10601D5302600E02026C00717
:1003B00007D070BDD4E9012130469047206A401C27
:1003C00020626D1EF6D570BD70B504468569007853
:1003D000C00707D170BDD4E9012120209047206AD1
:1003E000401C20626D1EF6D570BD00002DE9F04165
:1003F0000646002410687529314616A510D0AFF3C3
:100400000080002802DA404213A507E031688A071D
:1004100001D512A502E0490704D511A5012401E088
:10042000AFF3008000210A2206F1240709E0B0FBA7
:10043000F2FCB0FBF2F302FB1C003030785418469B
:10044000491C0028F3D123462A463046BDE8F04136
:1004500000F05FB9000000002D0000002B0000003C
:10046000200000002DE9F05F894604464FF0000AA5
:10047000DFF824B1FB44C0F820A02046E16888479B
:1004800000287DD0252806D0D4E901219047206A94
:10049000401C2062F1E700255F462046E16888475E
:1004A0002028064607DB312E05D2B81910F8200C9B
:1004B00008B10543F1E7A80701D525F00405C4F804
:1004C0001CA00027C4F818A02A2E09D0304606F038
:1004D000F1FA38B304EB8708303EC8F8186019E029
:1004E00059F8041B204604EB87029161E1688847B4
:1004F000012F064618D1E069002820DA25F02005F2
:100500001DE0D8F8180000EB800006EB4000303802
:10051000C8F818002046E1688847064606F0CAFA7F
:100520000028EED1012F0AD02E2E08D12046E168F6
:1005300088477F1C0646022F45F02005C4DBA069D2
:10054000002803DA404245F00105A061E80701D028
:1005500025F01005A6B1A6F14100192802D82036D1
:1005600045F400654A463146204625604D46FFF772
:1005700045FE60B1012807D0ED1D25F0070000E021
:1005800007E000F1080978E705F1040975E730464E
:100590007AE7206ABDE8F09FA867000010B5431C09
:1005A00002E010F8011B71B18107FAD14FF001325E
:1005B00002C88C1A8C4314EAC211F9D0C01A0A0678
:1005C00003D0C01E10BDC01A10BD0A0401D0801E89
:1005D00010BD0902FCD0401E10BD10B5203AC0F07D
:1005E0000B80B1E81850203AA0E81850B1E8185034
:1005F000A0E81850BFF4F5AF5FEA027C24BFB1E871
:100600001850A0E8185044BF18C918C0BDE81040E1
:100610005FEA827C24BF51F8043B40F8043B08BFEA
:100620007047D20728BF31F8023B48BF11F8012BB1
:1006300028BF20F8023B48BF00F8012B70474FF05D
:1006400000020429C0F0128010F0030C00F01B809F
:10065000CCF1040CBCF1020F18BF00F8012BA8BFAD
:1006600020F8022BA1EB0C0100F00DB85FEAC17C71
:1006700024BF00F8012B00F8012B48BF00F8012B24
:1006800070474FF0000200B5134694469646203955
:1006900022BFA0E80C50A0E80C50B1F12001BFF43B
:1006A000F7AF090728BFA0E80C5048BF0CC05DF8A1
:1006B00004EB890028BF40F8042B08BF704748BFEF
:1006C00020F8022B11F0804F18BF00F8012B704763
:1006D000704770477047000070B5064C7C44064D6B
:1006E0007D4403E0206820448047241DAC42F9D1BA
:1006F00070BD0000946500009865000010B500F022
:1007000087F8006810BD10B5044600F081F8046059
:1007100010BD2DE9F0470D4699469246044600F17A
:1007200024080168880604D5E06921F010012160E1
:1007300000E00120A84201DD471B00E00027A1697D
:100740007A1902EB0900081AA0612078C00602D4C9
:100750002046FFF723FE002608E0D4E901211AF81D
:1007600006009047206A401C761C20624E45F4DB50
:100770002078C0060AD52046FFF710FE06E0D4E92F
:10078000012130209047206A401C2062381EA7F1CA
:100790000107F4DC07E0D4E9012118F805009047CF
:1007A000206A401C2062281EA5F10105F3DC2046CA
:1007B000FFF70AFE2078000602D50220BDE8F08788
:1007C0000120FBE701694A1C02610878704700B507
:1007D0008FB0CDE901310021059105497944CDE97A
:1007E000031011466846FFF73DFE0FB000BD000044
:1007F000E5FFFFFF0A6802F8010B0A607047D1E9C4
:1008000000239A4202D2531C0B6010707047000004
:1008100000487047BC0E002000487047BC0E002006
:100820007546FFF7F9FFAE4605006946534620F0CE
:100830000700854618B020B5FFF70AFDBDE8204047
:100840004FF000064FF000074FF000084FF0000B8C
:1008500021F00701AC46ACE8C009ACE8C009ACE83F
:10086000C009ACE8C0098D46704710B50446AFF327
:1008700000802046BDE81040FFF7D6BC0149182093
:10088000ABBEFEE7260002007047000010B500F086
:10089000A9F800200249087002A000F09FFC10BDDA
:1008A0004000002041726D5461736B20496E697481
:1008B000204F4B0D0A00000010B500F0AFFB58B1FF
:1008C0002848007838B900F0CFFA0120254908708F
:1008D00025A000F083FC10BD00202249087000F024
:1008E000BFFC60B100F054FB00F09EFA18B121A0EB
:1008F00000F074FC02E024A000F070FCEBE700F0D4
:10090000A7FC60B100F044FB00F06CFA18B122A023
:1009100000F064FC02E025A000F060FCDBE700F0E2
:1009200019F910B100F0A0F9D5E700F0C9FA28B123
:1009300000F066FC22A000F051FCCCE700F010F9BA
:1009400010B100F091F9C6E700F0C2FA38B100F03A
:100950003FFC00F055FC1FA000F040FCBBE700BFCF
:10096000B9E700004000002041524D2053544F5041
:100970000D0A000041524D2047524142205354413C
:1009800052540D0A0000000041524D20475241428E
:1009900020425553590D0A0041524D204255494CB1
:1009A000442053544152540D0A00000041524D203E
:1009B0004255494C4420425553590D0A000000004D
:1009C00041524D204255494C4420444F4E450D0A5A
:1009D0000000000041524D204752414220444F4EFA
:1009E000450D0A0010B503F0B3FE002421E040F2EB
:1009F000DC5004EB8401484A22F8210004EB840116
:100A000002EB8101488004EB840102EB81018880C4
:100A1000002004EB840102EB8101886004EB840177
:100A200002EB8101C86004EB840102EB81010874D0
:100A3000641C052CDBD3394800F054FA04213848F3
:100A400002F0EAF80021364802F0E6F84FF496602A
:100A500000F07CFC40F2DC51002003F0F5FD4FF487
:100A6000C861042003F0F0FD40F69801012003F076
:100A7000EBFD1E2000F06AFC4FF47A71022003F0B7
:100A8000E3FD1E2000F062FC4FF49661032003F0AA
:100A9000DBFD1E2000F05AFC00202249087022498C
:100AA000087022490870224908604FF49660214975
:100AB0000880002020490870486088609FED1F0A68
:100AC000084680ED030A9FED1D0A80ED040A9FEDA4
:100AD0001B0A80ED050A9FED190A80ED060A9FEDBD
:100AE000170A80ED070A002015490870154908709B
:100AF00015490870154908601549086048600120CB
:100B000008720020487200F035FD1149C8600020CD
:100B100003F0F8FE10BD0000280E0020D8020020CF
:100B2000B801002028000020290000202A00002011
:100B30002C000020300000208C0E0020000000005F
:100B40003200002033000020340000203800002054
:100B5000AC0E0020014800787047000032000020F1
:100B60000148007870470000280000202DE9F0417E
:100B700005460E4617462C46052C02D30020BDE83C
:100B8000F081304603F052FD064647B9284603F08F
:100B90005DFF3146284603F057FD0120EFE72F485F
:100BA000405D012833D12E4810F80580BAB2314695
:100BB000404600F09DF904EB84002A4931F82000FA
:100BC00004EB8401274A02EB8101488004EB840096
:100BD000114601EB8000868000F0CCFC04EB840120
:100BE000204A02EB8101886004EB8400114601EB8E
:100BF0008000C760012004EB840102EB81010874CE
:100C000004EB8400114621F820600120B7E704EBD3
:100C10008400144931F8200004EB8401114A02EBEE
:100C20008101488004EB8400114601EB800086803E
:100C300000F0A0FC04EB84010A4A02EB8101886009
:100C400004EB8400114601EB8000C760012004EB37
:100C5000840102EB8101087400BF90E70C6C00086E
:100C6000116C0008280E002010B504F01BF958483C
:100C70000078002833D05748007828B3012804D0E2
:100C800002280DD0032820D118E003F069FF30B10D
:100C900000F070FC5049086002204E4908701CE0CA
:100CA00000F068FC4C490968401AC82805D30020A8
:100CB00003F038FE0320474908700EE003F050FFB0
:100CC00008B104F0D7F808E000BF03F08DFE002063
:100CD0003F4908703F49087000BF00BF10BD3F4842
:100CE000007800B9FAE73E4800780E2866D2DFE8BF
:100CF00000F064070E151C232D333A41484F565D12
:100D0000042003F0EBFC08B903F050FE5CE0022085
:100D100003F0E4FC08B903F06DFF55E0012003F097
:100D2000DDFC08B903F050FE4EE0032003F0D6FCD2
:100D300008B903F0CDFE47E0042003F0CFFC20B952
:100D400003F074FF08B903F065FE3DE004F044F8D9
:100D500008B103F05FFE37E0012003F0BFFC08B9E3
:100D600003F056FF30E0022003F0B8FC08B903F0AE
:100D70005FFE29E0032003F0B1FC08B904F01EF87F
:100D800022E0042003F0AAFC08B903F001FE1BE0F6
:100D9000032003F0A3FC08B903F0ECFD14E00220EB
:100DA00003F09CFC08B903F017FF0DE0012003F0ED
:100DB00095FC08B903F096FD06E000BF0020074946
:100DC00008700749087000BF00BF00BF86E7000039
:100DD00032000020340000203800002028000020CD
:100DE0002A00002010B50C48007810B90B48007894
:100DF00008B1002010BD00200949087001200749F2
:100E0000087003F07FFD4FF4FA6003F08BFD0120C2
:100E10000449087000BFEDE72800002032000020E0
:100E2000330000203400002010B50B48007810B9C2
:100E30000A48007808B1002010BD00F09BFB08496B
:100E4000086000200749087001200349087004F079
:100E5000DDF80120F0E7000028000020320000202B
:100E60002C0000202900002010B504F01BF8002001
:100E70000C490870002403E0E0B203F0E7FD641CB5
:100E8000052CF9D303F0B0FD00200749087007498D
:100E90000870074908700749087007490870074932
:100EA000087010BD8C0E00202800002029000020B2
:100EB00032000020330000202A00002034000020EF
:100EC000024908780021014A117070473300002060
:100ED000024908780021014A11707047290000205A
:100EE00000BFFEE701490860704700003C00002099
:100EF0002DE9F0418AB006460D4617461E480068A7
:100F000010B90AB0BDE8F081FE2E00D9F9E7B5F5B9
:100F1000FA7F02D24FF4FA7504E040F6C41085421D
:100F200000D9054642F20F70874200D90746334682
:100F300012A2202102A8CDE90057FFF713FA0446B8
:100F4000002C01DD202C00D3DBE7A2B2642302A930
:100F50000948006802F056F98046B8F1000F09D040
:100F6000052000F0F3F9A2B2642302A90248006848
:100F700002F048F900BFC4E73C00002023253033CD
:100F8000755025303475542530347521000000002B
:100F900010B560210548FFF752FB00200449087096
:100FA000044908700449087010BD00006C08002056
:100FB0002100002022000020230000200020014901
:100FC000087070472400002010B500200B490870FD
:100FD0000B4908700B4908700B490870FFF7D8FFE0
:100FE00000200A49087001200949087000200949B9
:100FF00008700949087000F071F810BD1500002054
:10100000160000201F0000202000002024000020E7
:10101000250000202600002027000020014800783D
:101020007047000024000020014609B900207047E5
:101030001048007808B90020F9E70F48007800EB65
:1010400040000E4A02EB400002680A6080888880F7
:1010500009480078401C084A107010460078102893
:1010600001D30020107003480078401E014A107020
:101070000120DCE723000020210000206C08002074
:10108000014609B90020704711480078102801D3A3
:101090000020F8E70F48007800EB40000E4A02EB12
:1010A00040000A6802608A8882800A480078401CF2
:1010B000084A107010460078102801D300201070E4
:1010C00003480078401C024A10700120DBE7000052
:1010D00023000020220000206C08002010B501220F
:1010E0000249034802F072F810BD0000140000200D
:1010F0009002002010B504463048007830B1012835
:101100000AD0022818D0032852D138E0662C02D128
:1011100001202A4908704FE0662C03D1022027499C
:10112000087008E0662C03D101202449087002E011
:101130000020224908703FE021480470007804F044
:1011400094FB2049087000201F4908701D48007852
:1011500048B900221D491A48007804F00BFB002012
:10116000164908700AE017480078082803D90020BB
:101170001249087002E00320104908701CE0124870
:1011800001780078401C104A1070104844541046F2
:1011900000780C490978884209DB0A4802780B4933
:1011A0000748007804F0E6FA00200449087003E0DC
:1011B00000200249087000BF00BF10BD15000020CC
:1011C000160000201F000020200000201700002033
:1011D00010B5852000F020F810BD000070B5044661
:1011E00004B970BD2046FFF7D9F985B264232A46B9
:1011F0002146024802F006F800BFF2E79002002004
:1012000010B50448007800B910BD822000F004F841
:1012100000BFF9E72500002038B5044666208DF8A8
:1012200000008DF801008DF8024014230322694666
:10123000014801F0E7FF38BD9002002008B101210C
:1012400000E00021014A11707047000025000020D5
:10125000024908780021014A1170704727000020D8
:10126000024908780021014A1170704726000020C9
:10127000704772B600BFFEE770B50446A56D00F07A
:1012800079F9064694F83500022808D08020606578
:1012900000BF002084F8340000BF012070BD20682A
:1012A000006820F01600216808602068406920F07E
:1012B000800021684861206C08B9A06C28B12068C2
:1012C000006820F00800216808602068006820F0AD
:1012D00001002168086010E000F04CF9801B05282F
:1012E0000BD920206065032084F8350000BF002062
:1012F00084F8340000BF0320D0E72068006800F0C5
:1013000001000028E8D194F85C103F208840A860D4
:10131000012084F8350000BF002084F8340000BFAD
:1013200000BFBBE7014691F83500022803D08020BA
:10133000486501207047052081F83500086800687D
:1013400020F001000A6810600020F3E770B5044641
:1013500000F010F906462546681C10B104480078D4
:10136000054400BF00F006F9801BA842FAD370BD07
:1013700008000020F8B502460B4600250024002096
:101380000021D6E0012606FA01F51E6806EA0504EA
:10139000AC4274D11E7906F00306012E04D01E79EA
:1013A00006F00306022E13D190684F000326BE40BC
:1013B000B0434F00DE68BE40304390605068012665
:1013C0008E40B0431E79C6F300168E403043506005
:1013D0001E7906F00306032E09D0D0684F000326BD
:1013E000BE40B0434F009E68BE403043D0601E797F
:1013F00006F00306022E13D1CF0802F1200656F89C
:1014000027004E07F70E0F26BE40B0434F07FF0ED2
:101410001E69BE403043CF0802F1200646F827007F
:1014200010684F000326BE40B0431E7906F0030645
:101430004F00BE40304310605E6806F44036002E18
:1014400076D000BF002600963C4E366846F48046B3
:101450003A4F3E603E46366806F48046009600BF2E
:1014600000BF374E8F0856F827008E07370F0F261C
:10147000BE40B043334EB24202D1002624E057E0D2
:10148000314EB24201D101261EE0304EB24201D1AE
:10149000022619E02E4EB24201D1032614E02D4E51
:1014A000B24201D104260FE02B4EB24201D10526F3
:1014B0000AE02A4EB24201D1062605E0284EB24289
:1014C00001D1072600E008268F073F0FBE403043BA
:1014D0001B4E8F0846F82700224E3068A0435E68F6
:1014E00006F4801606B120431E4E3060361D30686B
:1014F000A0435E6806F4001606B12043194E361D5F
:101500003060184E361F3068A0435E6806F400361F
:1015100006B12043134E361F3060361F3068A0439B
:101520005E6806F4803606B120430E4E083E3060F9
:10153000491C1029FFF426AFF8BD000044380240D2
:101540000838014000000240000402400008024048
:10155000000C02400010024000140240001802403B
:10156000001C0240083C01400AB1816101E00B040B
:101570008361704701480068704700000000002048
:1015800070B504460CB9012070BD94F83D0028B92F
:10159000002084F83C00204600F0DAF8242084F88B
:1015A0003D002068006820F0010021680860206884
:1015B000006840F40040216808602068006820F45A
:1015C00000402168086000F0A9FA05465C4960689F
:1015D000884206D85B48854201D2012007E00020FE
:1015E00005E05948854201D2012000E00020012891
:1015F00000D1C9E75548B5FBF0F62068406820F0F7
:101600003F003043216848604D496068884201D8F6
:10161000701C07E04FF4967070434FF47A71B0FB82
:10162000F1F0401C2168096A21F03F01084321685C
:10163000086243496068884214D8681E616849009E
:10164000B0FBF1F0401CC0F30B00042801D20420D1
:101650003DE0681E61684900B0FBF1F0401CC0F33A
:101660000B0034E0A06838B9681E616801EB4101E5
:10167000B0FBF1F0401C0AE0681E616801EBC1029A
:1016800002EB0111B0FBF1F0401C40F48040C0F3CC
:101690000B0008B901201AE0A06848B9681E61680B
:1016A00001EB4101B0FBF1F0401CC0F30B000CE07A
:1016B000681E616801EBC10202EB0111B0FBF1F0A1
:1016C000401CC0F30B0040F4804040F4004021680F
:1016D000C9694CF6FF72914308432168C861D4E997
:1016E000070108432168096821F0C0010843216807
:1016F0000860D4E9031008432168896848F2FF3282
:101700009143084321688860D4E9050108432168B2
:10171000C96821F0FF0108432168C860206800689B
:1017200040F001002168086000202064202084F837
:101730003D000020206384F83E0000BF24E7000045
:10174000A086010080841E0000093D0040420F0079
:1017500010B586B00446142101A8FEF792FF1B497C
:10176000206888422FD100BF0020009018480068F0
:1017700040F00200164908600846006800F00200C8
:10178000009000BF00BFC0200190122002900020F6
:101790000390032004900420059001A90D48FFF751
:1017A000E9FD00BF0020009009481030006840F4B7
:1017B00000100749103108600846006800F4001066
:1017C000009000BF00BF06B010BD000000540040F4
:1017D0003038024000040240034800680349097899
:1017E00008440149086070470000002008000020FC
:1017F00010B50D48006840F400700B4908600846B9
:10180000006840F4806008600846006840F480701A
:101810000860032000F0A6F80F2000F007F800F0A1
:101820002BF8002010BD0000003C024070B50446BB
:101830000E4800784FF47A71B1FBF0F00C4909685A
:10184000B1FBF0F5284600F02FFC08B1012070BD77
:10185000102C07D200222146501E00F045F8054802
:10186000046001E00120F2E70020F0E7080000201A
:101870000C0000200400002008B500BF00200090EC
:101880000E48006840F480400C4908600846006833
:1018900000F48040009000BF00BF00BF0020009017
:1018A000081F006840F08050091F08600846006863
:1018B00000F08050009000BF00BF08BD44380240D7
:1018C0000146084600280DDB00BF00BF00F01F03E3
:1018D00001229A4043099B0003F1E023C3F8002151
:1018E00000BF00BF00BF70472DE9F05F80460D4686
:1018F0001646002704F01CFB074639462A463346A5
:1019000001F00700C0F1070ABAF1040F02D94FF045
:10191000040A01E0C0F1070AD14600F1040ABAF155
:10192000070F02D24FF0000A01E0A0F1030AD446EB
:101930004FF0010A0AFA09FAAAF1010A0AEA020AB0
:101940000AFA0CFA4FF0010B0BFA0CFBABF1010B8E
:101950000BEA030B4AEA0B042146404604F0D4FA92
:10196000BDE8F09F00BF00F00702064B19684FF674
:10197000FF031940044B0B4343EA0221014B19605A
:1019800000BF70470CED00E00000FA0570B504469A
:101990000D460CB9012070BD5848006800F00700E2
:1019A000A84209D255490D700846006800F00700AA
:1019B000A84201D00120EEE7207800F002000228C2
:1019C0001DD1207800F00400042805D14C4800689F
:1019D00040F4E0504A490860207800F008000828E8
:1019E00005D14748006840F46040454908604448D4
:1019F000006820F0F000A1680843414908602078A1
:101A000000F00100A8B36068012807D13C480838FD
:101A10000068C0F34040B8B90120BCE76068022804
:101A200002D06068032807D1354808380068C0F341
:101A3000406048B90120AEE7314808380068C0F37B
:101A4000400008B90120A6E72D48006820F00300F7
:101A5000616808432A490860FFF78CFD064609E0E3
:101A6000FFF788FD801B41F28831884202D90320AC
:101A700091E707E02248006800F00C006168B0EBD5
:101A8000810FEDD11D48006800F00700A84209D978
:101A90001A490D700846006800F00700A84201D0FE
:101AA000012078E7207800F00400042807D11448CA
:101AB000006820F4E050E16808431149086020788C
:101AC00000F00800082808D10D48006820F46040A4
:101AD000216940EAC1000A49086000F03FF808495E
:101AE0000968C1F30311074A515CC8400649086000
:101AF00006480068FFF79AFE00204CE7003C0240D1
:101B000008380240B66B00080C00002004000020DA
:101B100001480068704700000C00002000B5FFF786
:101B2000F7FF04490968C1F38221034A515CC840A8
:101B300000BD000008380240C66B000800B5FFF782
:101B4000E7FF04490968C1F34231034A515CC840C8
:101B500000BD000008380240C66B00082DE9F047C0
:101B6000002400250026A1462548006800F00C004E
:101B700020B1042805D008283AD105E0DFF8849088
:101B800039E0DFF8849036E01D48001F006800F05F
:101B90003F041B48001F006800F4800078B11A4819
:101BA0001749091F0968C1F38811A0FB017001469C
:101BB000224600233846FEF75DFB05460EE011483D
:101BC0000F49091F0968C1F38811A0FB0170014684
:101BD000224600233846FEF74DFB05460848001F05
:101BE0000068C0F30140401C4600B5FBF6F902E076
:101BF000DFF8109000BF00BF4846BDE8F087000046
:101C0000083802400024F40000127A00F8B50446B7
:101C10000CB90120F8BD207800F00100002874D034
:101C2000F948006800F00C0004280DD0F648006860
:101C300000F00C00082813D1F348001F006800F4DE
:101C40008000B0F5800F0BD1EF4808380068C0F372
:101C50004040002859D06068002856D10120D9E7BB
:101C600000BF6068B0F5803F08D1E74808380068D9
:101C700040F48030E449083908601EE06068B0F53F
:101C8000A02F0DD1E0480838006840F48020DE49DC
:101C9000083908600846006840F4803008600CE0AD
:101CA000D9480838006820F48030D74908390860DE
:101CB0000846006820F48020086000BF606890B18A
:101CC000FFF758FC054606E0FFF754FC401B64286C
:101CD00001D903209EE7CC4808380068C0F3404093
:101CE0000028F1D011E0FFF745FC054606E0FFF7BC
:101CF00041FC401B642801D903208BE7C248083807
:101D00000068C0F340400028F1D1207800F00200C4
:101D100002285FD1BC48006800F00C0058B1BA48F6
:101D2000006800F00C0008281CD1B748001F0068AC
:101D300000F48000B0B9B44808380068C0F340002F
:101D400020B1E068012801D0012063E7AE480838DF
:101D5000006820F0F800216940EAC100AA4908396A
:101D6000086037E0E06800B30120A8490860FFF789
:101D700001FC054606E0FFF7FDFB401B022801D9E8
:101D8000032047E7A04808380068C0F34000002857
:101D9000F1D09D480838006820F0F800216940EA39
:101DA000C10099490839086014E00020974908608B
:101DB000FFF7E0FB054606E0FFF7DCFB401B0228CF
:101DC00001D9032026E7904808380068C0F3400096
:101DD0000028F1D1207800F0080008282CD1606993
:101DE000A8B101208A490860FFF7C4FB054606E058
:101DF000FFF7C0FB401B022801D903200AE78248F5
:101E00006C300068C0F340000028F1D014E00020DE
:101E10007F490860FFF7AEFB054606E0FFF7AAFB27
:101E2000401B022801D90320F4E677486C30006893
:101E3000C0F340000028F1D1207800F0040004280D
:101E400070D1002770483830006800F0805090B999
:101E500000BF002000906C483830006840F080508F
:101E60006949383108600846006800F080500090E9
:101E700000BF00BF01276748006800F48070B0B958
:101E80006448006840F4807062490860FFF772FBA4
:101E9000054606E0FFF76EFB401B022801D9032030
:101EA000B8E65C48006800F480700028F2D000BFFB
:101EB000A068012808D154486830006840F001004B
:101EC0005149683108601DE0A06805280DD14E48D1
:101ED0006830006840F004004B49683108600846EB
:101EE000006840F0010008600CE047486830006876
:101EF00020F001004449683108600846006820F07D
:101F00000400086000BFA068A8B1FFF733FB0546D6
:101F100009E0FFF72FFB401B41F28831884202D9CC
:101F2000032077E626E0384868300068C0F34000B8
:101F30000028EED013E0FFF71DFB054608E0FFF791
:101F400019FB401B41F28831884201D9032061E628
:101F50002D4868300068C0F340000028EFD1012F01
:101F600007D129483830006820F0805026493831A0
:101F7000086000BFA069002845D02348006800F031
:101F80000C0008285DD0A069022845D100201F4917
:101F90000866FFF7EFFA054606E0FFF7EBFA401B8D
:101FA000022801D9032035E6174808380068C0F335
:101FB00040600028F1D1D4E907010843616A40EA92
:101FC00081110122A06AC2EB500041EA00412C209D
:101FD000005D41EA00600C49091F086001200B49BF
:101FE0000866FFF7C7FA054606E0FFF7C3FA401B8D
:101FF000022801D903200DE6034808380068C0F321
:1020000040600028F1D049E0083802400000474213
:10201000800E474200700040002021490866FFF70B
:10202000A9FA054606E0FFF7A5FA401B022801D9E8
:102030000320EFE51B480068C0F340600028F2D1A0
:102040002CE0A069012800D1E4E51648001D0668CF
:10205000A069012820D006F48001E06981421BD1EB
:1020600006F03F01206A814216D147F6C070304029
:10207000616AB0EB811F0FD106F440310122A06AE2
:10208000C2EB5000B1EB004F06D106F070612C207E
:10209000005DB1EB006F01D00120BBE50020B9E588
:1020A000000047420038024070B504462546681ECD
:1020B000B0F1807F01D301200FE0681E4FF0E021D6
:1020C00048610F214FF0FF3003F01EFF00204FF05A
:1020D000E021886107200861002070BD70477047CB
:1020E00010B50346002200BF93F83C00012801D13F
:1020F000022010BD012083F83C0000BF22F0FF0049
:10210000CC6840EA040222F440708C6840EA040281
:1021100022F480604C6840EA040222F400600C68FB
:1021200040EA040222F480500C6940EA040222F4DE
:1021300000504C6940EA040222F48040CC6940EA35
:1021400004021868426400BF002083F83C0000BF0E
:1021500000BFCEE730B502460B4600BF92F83C0008
:10216000012801D1022030BD012082F83C0000BFCF
:10217000022082F83D00106844681068816824F0ED
:1021800070041868044310684460184D1068A84231
:102190001BD01068B0F1804F17D0154D1068A842C1
:1021A00013D0144D1068A8420FD0134D1068A842E8
:1021B0000BD0124D1068A84207D0114D1068A842EC
:1021C00003D0104D1068A84205D121F08001586855
:1021D000014310688160012082F83D0000BF0020AB
:1021E00082F83C0000BF00BFBDE7000000000140D6
:1021F0000004004000080040000C004000040140C2
:10220000004001400018004010B504460CB9012000
:1022100010BD94F83D0028B9002084F83C00204609
:1022200000F026F8022084F83D00211D206801F00E
:10223000BBFC012084F8460000BF84F83E00012169
:102240003F200155402001554120015500BF00BFEE
:10225000012084F8420043200155442001554520C7
:10226000015500BF012084F83D000020D0E70000A8
:1022700038B504462849206888420FD100BF0020A5
:1022800000902648006840F0010024490860084694
:10229000006800F00100009000BF3CE02049206889
:1022A00088421AD100BF002000901C48001F00681F
:1022B00040F008001949091F08600846006800F04E
:1022C0000800009000BF00BF002202213220FFF76B
:1022D0000BFB3220FFF7F4FA1DE012492068884218
:1022E00019D100BF002000900C48001F006840F08A
:1022F00010000A49091F08600846006800F0100035
:10230000009000BF00BF002211463620FFF7ECFA14
:102310003620FFF7D5FA38BD0000014044380240AE
:10232000000C004000100040014691F83D000128DB
:1023300001D001207047022081F83D000868C06884
:1023400040F001000B68D8601A4B086898421BD017
:102350000868B0F1804F17D0174B0868984213D027
:10236000164B086898420FD0154B086898420BD05E
:10237000144B0868984207D0134B0868984203D062
:10238000124B086898420CD10868806800F0070278
:10239000062A0CD00868006840F001000B6818603D
:1023A00005E00868006840F001000B681860002034
:1023B000C0E70000000001400004004000080040A9
:1023C000000C0040000401400040014000180040A3
:1023D0002DE9F04104460D46002700BF94F83C006B
:1023E000012802D10220BDE8F081012084F83C00E0
:1023F00000BF022084F83D002068866826F077063A
:1024000026F47F46206886602868502833D00CDC8C
:10241000202850D004DC00284BD0102851D149E0AE
:10242000302849D040284CD139E060282DD0702880
:1024300007D0B0F5805F03D0B0F5005F41D10DE06B
:1024400041E0D5E902136A68206801F02EFC20689B
:10245000866846F077062068866034E0D5E9021386
:102460006A68206801F021FC2068806840F48040A0
:102470002168886027E0EA686968206803F0C3FA89
:102480005021206803F0B6FA1DE0EA686968206808
:1024900003F0CCFA6021206803F0ACFA13E0EA689C
:1024A0006968206803F0AFFA4021206803F0A2FABF
:1024B00009E000BF00BF00BF2968206803F09AFA56
:1024C00001E0012700BF00BF012084F83D0000BFEC
:1024D000002084F83C0000BF384684E72DE9F04135
:1024E00004460D4614B90120BDE8F08194F83D0082
:1024F00028B9002084F83C00204600F053F8022060
:1025000084F83D002068806844F207018843216810
:102510008860211D206801F047FB2068D0F8088002
:10252000206886692068076A286840EA080840F23F
:1025300003308643A969A86840EA0120064340F6B3
:102540000C4086434FF2F0008643E969E86840EAB0
:102550000120064328690001296A40EA0130064348
:1025600027F0220727F088076969686840EA0110A8
:1025700007432068C0F808802068866120680762E9
:10258000012084F8460084F83E0001213F200155D7
:10259000012084F8420043200155012084F83D00C9
:1025A0000020A1E710B586B00446142101A8FEF76B
:1025B00068F82068B0F1804F4DD100BF0020009036
:1025C0007648006840F001007449086008460068D9
:1025D00000F00100009000BF00BF00BF002000908D
:1025E0006E481038006840F001006C4910390860EE
:1025F0000846006800F00100009000BF00BF00BF67
:10260000002000900846006840F00200086008467C
:10261000006800F00200009000BF00BF2020019081
:1026200002200290012003900020049001200590D8
:1026300001A95B48FEF79EFE08200190022002904F
:1026400001200390002004900120059001A9554825
:10265000FEF790FEA0E054492068884230D100BFC8
:10266000002000904D48006840F002004B4908608F
:102670000846006800F00200009000BF00BF00BFE5
:102680000020009045481038006840F0020043499F
:10269000103908600846006800F00200009000BF92
:1026A00000BF302001900220029001200390002002
:1026B00004900220059001A93A48FEF75BFE6BE00A
:1026C0003A492068884231D100BF00200090334849
:1026D000006840F00400314908600846006800F0D6
:1026E0000400009000BF00BF00BF002000902B48F6
:1026F0001038006840F00800284910390860084682
:10270000006800F00800009000BF00BF4FF4405088
:1027100001900220029001200390002004900220EA
:10272000059001A92248FEF725FE35E021492068E1
:10273000884231D100BF002000901848001D006879
:1027400040F002001549091D08600846006800F0C5
:102750000200009000BF00BF00BF002000900F48A3
:102760001038006840F004000C4910390860084631
:10277000006800F00400009000BF00BFC02001907E
:102780000220029001200390002004900320059075
:1027900001A90948FEF7EEFD06B010BD4038024021
:1027A0000000024000040240000400400008004015
:1027B000000C024000040140000802402DE9F043F3
:1027C00004460D4694F83E603F20075D94F8428031
:1027D000432010F804906DB9012E02D1B8F1010F19
:1027E00002D00120BDE8F083022084F83E0084F886
:1027F000420025E0042D0CD1012F02D1B9F1010FC7
:1028000001D00120EEE702213F2001554320015570
:1028100016E0012E07D1012F05D1B8F1010F02D129
:10282000B9F1010F01D00120DCE7022084F83E005D
:1028300002213F200155022084F842004320015527
:1028400015B1042D0CD105E001220021206801F012
:102850001BFA10E001220421206801F015FA0AE0B9
:1028600001220021206801F00FFA012204212068D2
:1028700001F00AFA00BF00BF2068006840F00100C4
:10288000216808600020ADE7704770B504462068F5
:10289000C5682068066906F00200022819D105F013
:1028A0000200022815D1401F21680861012020770D
:1028B0002068806900F0030018B12046FFF7E4FFAC
:1028C00005E0204600F0F0F8204600F0A4F90020D2
:1028D000207706F00400042819D105F0040004282C
:1028E00015D1C043216808610220207720688069E3
:1028F00000F4407018B12046FFF7C6FF05E02046FF
:1029000000F0D2F8204600F086F90020207706F08B
:102910000800082819D105F00800082815D1C0437F
:1029200021680861042020772068C06900F0030056
:1029300018B12046FFF7A8FF05E0204600F0B4F8E4
:10294000204600F068F90020207706F010001028DB
:1029500019D105F01000102815D1C0432168086175
:10296000082020772068C06900F4407018B1204624
:10297000FFF78AFF05E0204600F096F8204600F0B9
:102980004AF90020207706F0010048B105F0010067
:1029900030B16FF0010021680861204600F0C2F9F3
:1029A00006F08000802809D105F08000802805D13C
:1029B000C043216808612046FFF790FB06F0400005
:1029C000402809D105F04000402805D1C0432168C6
:1029D0000861204600F0ACF906F02000202809D15B
:1029E00005F02000202805D1C04321680861204659
:1029F000FFF775FB70BD000010B586B004461421CA
:102A000001A8FDF73EFE2349206888421ED100BF81
:102A1000002000902048006840F010001E49086027
:102A20000846006800F01000009000BF00BF4FF49F
:102A3000D4400190022002900020039004900120D5
:102A4000059001A91548FEF795FC20E0144920687F
:102A500088421CD100BF002000900F48006840F061
:102A600001000D4908600846006800F00100009070
:102A700000BF00BF032001900220029000200390BD
:102A800004900220059001A90648FEF773FC06B0E9
:102A900010BD00000000014030380240001002402C
:102AA000000C00400000024070472DE9F041044650
:102AB0000D461646002700BF94F83C00012802D1BD
:102AC0000220BDE8F081012084F83C0000BF36B14F
:102AD000042E1BD0082E31D00C2E5ED145E02946A5
:102AE000206802F0E9FE2068806940F00800216853
:102AF00088612068806920F004002168886120686E
:102B00008069296908432168886148E0294620686E
:102B100001F0D6F82068806940F40060216888617F
:102B20002068806920F4806021688861206880695D
:102B3000296940EA01202168886130E0294620683F
:102B400002F0F2FE2068C06940F008002168C86108
:102B50002068C06920F004002168C8612068C0694D
:102B6000296908432168C86119E02946206802F0F4
:102B700017FF2068C06940F400602168C8612068C0
:102B8000C06920F480602168C8612068C069296933
:102B900040EA01202168C86101E0012700BF00BFB1
:102BA00000BF002084F83C0000BF384689E710B51C
:102BB00004460CB9012010BD94F83D0028B900204E
:102BC00084F83C00204600F025F8022084F83D00FF
:102BD000211D206800F0E8FF012084F8460000BFB6
:102BE00084F83E0001213F2001554020015541203D
:102BF000015500BF00BF012084F842004320015569
:102C0000442001554520015500BF012084F83D00B6
:102C10000020D0E77047704770B504460D4615B9DF
:102C200094F83E000BE0042D02D13F20005D06E049
:102C3000082D02D14020005D01E04120005D012807
:102C400001D0012070BD1DB9022084F83E000EE0C5
:102C5000042D03D102213F20015508E0082D03D1A6
:102C600002214020015502E00221412001550122AC
:102C70002946206801F008F823492068884203D0DB
:102C800022492068884201D1012000E0002028B1BB
:102C90002068406C40F40040216848641A4920686C
:102CA00088421BD02068B0F1804F17D018492068A7
:102CB000884213D01749206888420FD016492068EF
:102CC00088420BD011492068884207D013492068F8
:102CD000884203D01249206888420CD1206880685D
:102CE00000F00706062E0CD02068006840F00100B6
:102CF0002168086005E02068006840F00100216854
:102D0000086000209EE70000000001400004014030
:102D10000004004000080040000C0040004001405A
:102D20000018004010B50446204600F0B5FE10BD66
:102D30007047704710B50446204600F0EBFE10BD0A
:102D40002DE9F84F0446206805682068C6682068A9
:102D500047694FF00009CA4605F00F09B9F1000FA5
:102D60000AD105F0200038B106F0200020B120463D
:102D700002F086FFBDE8F88FB9F1000F7CD007F0B4
:102D8000010018B906F49070002875D005F0010014
:102D900030B106F4807018B1606C40F001006064DE
:102DA00005F0040030B107F0010018B1606C40F08C
:102DB0000200606405F0020030B107F0010018B1B4
:102DC000606C40F00400606405F0080048B106F053
:102DD000200010B907F0010018B1606C40F0080045
:102DE0006064606C002846D005F0200028B106F031
:102DF000200010B1204602F043FF20684069C0F374
:102E0000801A606C00F0080010B9BAF1000F2DD0E4
:102E1000204602F0E3FF2068406900F040004028AF
:102E200020D100BF00BF2168143151E8001F21F0FC
:102E300040002168143141E80002002AF3D100BFAC
:102E4000E06B50B17F48E16B0865E06BFEF76AFA12
:102E500088B1E06B016D88470DE02046FFF76AFFFF
:102E600009E009E02046FFF765FF04E02046FFF790
:102E700061FF002060647DE7206B012878D105F0B8
:102E80001000002874D006F010000028FAD000BF0F
:102E90000020009020680068009020684068009042
:102EA00000BF00BF2068406900F04000402870D19A
:102EB000E06B006840681FFA80F8B8F1000F58D046
:102EC000A08D404555DDA4F82E80E06BC069B0F5BB
:102ED000807F43D000BF00BF21680C3151E8001F44
:102EE00021F4807021680C3141E80002002AF3D1FE
:102EF00000BF00BF00BF2168143151E8001F21F05E
:102F000001002168143141E80002002AF3D100BF1A
:102F100000BF00BF2168143151E8001F21F04000BC
:102F20002168143141E80002002AF3D100BF2020BB
:102F300084F842000020206300BF00BF21680C31EC
:102F400051E8001F21F0100021680C3141E8000217
:102F5000002AF3D100BFE06BFEF78EF90220606318
:102F6000A08DE28D801A81B22046FFF7E2FE0EE0CE
:102F700052E0A08D40450AD1E06BC069B0F5807F7A
:102F800005D102206063A18D2046FFF7D2FEF1E655
:102F9000FFE7A08DE18D401A1FFA80F8E08DD0B3D5
:102FA000B8F1000F37D000BF00BF21680C3151E8E5
:102FB000001F21F4907021680C3141E80002002AC2
:102FC000F3D100BF00BF00BF2168143151E8001FDA
:102FD00021F001002168143141E80002002AF3D1F8
:102FE00000BF202084F842000020206300BF00BF03
:102FF00021680C3151E8001F21F0100021680C31CC
:1030000041E80002002AF3D100BF0220606341467C
:103010002046FFF78EFEADE605F0800030B106F0E9
:10302000800018B1204602F0A9FEA3E605F040009A
:1030300030B106F0400018B1204602F005FF99E6D5
:1030400000BF97E6695E000810B504460CB9012080
:1030500010BDA06900B100E000BF94F8410028B99C
:10306000002084F84000204600F02AF8242084F84C
:1030700041002068C06820F400502168C8602046E4
:1030800002F0E8FC2068006920F4904021680861A3
:103090002068406920F02A00216848612068C068E3
:1030A00040F400502168C86000206064202084F84B
:1030B000410084F842000020606300BFC8E70000C0
:1030C00010B586B00446142101A8FDF7DAFA3B4991
:1030D0002068884239D100BF00200090384800683D
:1030E00040F01000364908600846006800F0100003
:1030F000009000BF00BF00BF00200090304814388F
:10310000006840F001002E49143908600846006844
:1031100000F00100009000BF00BF4FF4C0600190BC
:1031200002200290002003900320049007200590C5
:1031300001A92448FEF71EF9002211462520FEF7BA
:10314000D3FB2520FEF7BCFB35E01F4920688842F1
:1031500031D100BF002000901948001F006840F4E2
:1031600000301749091F08600846006800F4003065
:10317000009000BF00BF00BF00200090104814382E
:10318000006840F001000E491439086008460068E4
:1031900000F00100009000BF00BF0C200190022051
:1031A000029000200390032004900720059001A9BD
:1031B0000448FEF7DFF806B010BD00000010014023
:1031C00044380240000002400044004070B504460C
:1031D0000D46164694F8420020280BD105B10EB9D1
:1031E000012070BD0020206332462946204600F0B1
:1031F000A5FDF6E70220F4E710B50446204600F0EE
:1032000097FC10BD2DE9F84F04460E461746994627
:103210004FF0000A94F84100202850D106B117B9A8
:103220000120BDE8F88F00206064212084F841006F
:10323000FEF7A0F98246A784E784A068B0F5805F16
:1032400004D1206910B90025B04602E035464FF0A0
:1032500000081EE05346002280212046CDF8009051
:1032600002F00BFE20B1202084F841000320D8E7B3
:1032700045B9B8F80000C0F308002168486008F1BB
:10328000020803E02878216848606D1CE08C401E2D
:10329000E084E08C0028DDD1534600224021204606
:1032A000CDF8009002F0E9FD20B1202084F8410023
:1032B0000320B6E7202084F841000020B1E7022077
:1032C000AFE7704700BFFEE700B587B0142102A842
:1032D000FDF7D7F900BF002001904348006840F097
:1032E0001000414908600846006800F01000019095
:1032F00000BF00BF00BF002001900846006840F0FA
:10330000800008600846006800F08000019000BF5F
:1033100000BF00BF002001900846006840F0010097
:1033200008600846006800F00100019000BF00BF7F
:1033300000BF002001900846006840F008000860C7
:103340000846006800F00800019000BF00BF00BF01
:10335000002001900846006840F00400086008461C
:10336000006800F00400019000BF00BF00BF002013
:1033700001900846006840F00200086008460068B6
:1033800000F00200019000BF00BF0022FF2117489B
:10339000FEF7EAF81020029000200390049002A9A2
:1033A0001348FDF7E7FF2020029000200390012042
:1033B000049002A90E48FDF7DDFFC0200290002016
:1033C00003900120049002A90A48FDF7D3FFFF20D3
:1033D00002900120039000200490059002A9034868
:1033E000FDF7C8FF07B000BD30380240000C0240B6
:1033F000001002400000024010B50B480B49086065
:103400000B484860002109488160C1604FF4804149
:103410000161002141618161C1610162FEF7B0F883
:1034200008B1FDF726FF10BD005400404400002005
:10343000A086010000B595B0002011901290139065
:1034400014900F9010901C2108A8FDF71AF9202164
:103450006846FDF716F93748374908600820486084
:1034600000213548816040F2E731C16000210161EF
:1034700041618161FEF7C8FE08B1FDF7FAFE4FF425
:103480008050119011A92C48FEF7A2FF08B1FDF75A
:10349000F0FE2948FFF78BFB08B1FDF7EAFE00209C
:1034A0000F9010900FA92448FEF754FE08B1FDF7C5
:1034B000E0FE60200890002009900A900B900C908C
:1034C0000D900E90002208A91B48FFF7EEFA08B1F4
:1034D000FDF7CFFE042208A91748FFF7E6FA08B166
:1034E000FDF7C7FE082208A91348FFF7DEFA08B166
:1034F000FDF7BFFE0C2208A90F48FFF7D6FA08B166
:10350000FDF7B7FE00200090019002900390049018
:103510004FF4005005900020079069460648FEF7DA
:10352000DFFD08B1FDF7A5FE0348FFF765FA15B00A
:1035300000BD0000000001409800002000B58BB0E5
:10354000242102A8FDF79DF80020009001904FF083
:1035500080401849086000204860002115488160BB
:10356000491EC16000210161816103200290002099
:103570000390012004900020059004200690002074
:103580000790012008900020099004200A9002A9C9
:103590000848FEF7A3FF08B1FDF76BFE002000907E
:1035A000019069460348FEF7D5FD08B1FDF761FEBD
:1035B0000BB000BDE000002000B58BB0242102A8B4
:1035C000FDF75FF800200090019019481949086044
:1035D000002048600021174881604FF6FF71C160EC
:1035E00000210161816103200290002003900120ED
:1035F00004900020059004200690002007900120F0
:1036000008900020099004200A9002A90948FEF7BA
:1036100065FF08B1FDF72DFE00200090019069467E
:103620000448FEF797FD08B1FDF723FE0BB000BD7F
:10363000000400402801002000B58BB0242102A81E
:10364000FDF71FF800200090019019481949086003
:10365000002048600021174881604FF6FF71C1606B
:10366000002101618161032002900020039001206C
:10367000049000200590042006900020079001206F
:1036800008900020099004200A9002A90948FEF73A
:1036900025FF08B1FDF7EDFD00200090019069467F
:1036A0000448FEF757FD08B1FDF7E3FD0BB000BD80
:1036B000000800407001002000B58DB00020099086
:1036C0000A900B900C90079008901C216846FCF71C
:1036D000D8FF24482449086053204860002122482C
:1036E000816044F61F61C160002101618161FEF7C4
:1036F0008BFD08B1FDF7BDFD4FF48050099009A97D
:103700001948FEF765FE08B1FDF7B3FD1648FFF74F
:103710004EFA08B1FDF7ADFD00200790089007A90B
:103720001148FEF717FD08B1FDF7A3FD60200090DA
:103730000020019002900490002269460A48FFF799
:10374000B4F908B1FDF795FD042269460648FFF774
:10375000ACF908B1FDF78DFD0348FFF74DF90DB049
:1037600000BD0000000C0040B80100201CB5002086
:10377000009001900E480F490860532048600021D6
:103780000C48816044F61F61C16000218161FEF731
:103790003BFD08B1FDF76DFD0020009001906946EA
:1037A0000448FEF7D7FC08B1FDF763FD1CBD00001F
:1037B000001000400002002000B58BB0242102A8B8
:1037C000FCF75FFF0020009001901A481A4908603A
:1037D000002048600021184881604FF6FF71C160E9
:1037E000002101614161816103200290002003906A
:1037F00001200490002005900420069000200790EE
:10380000012008900020099004200A9002A90A488B
:10381000FEF764FE08B1FDF72CFD0020009001903A
:1038200069460548FEF796FC08B1FDF722FD0BB08E
:1038300000BD0000000401404802002010B50B4804
:103840000B4908604FF41650486000210848816019
:10385000C16001610C21416100218161C161FFF7FB
:10386000F3FB08B1FDF705FD10BD0000001001409D
:103870009002002010B50B480B4908604FF4E1306E
:103880004860002108488160C16001610C214161EC
:1038900000218161C161FFF7D7FB08B1FDF7E9FCA9
:1038A00010BD000000440040D802002000BFFEE729
:1038B00000B503461846FDF7B7FB00BD00B5A1B043
:1038C0003D2229490FA8FCF788FE274890F83D00C3
:1038D0008DF87900244890F83E008DF87A0022484F
:1038E00090F83F108DF87B1090F840108DF87C1008
:1038F00090F841108DF87D1090F842008DF87E0010
:10390000194890F843108DF87F1090F844108DF806
:10391000801090F845108DF8811090F846008DF8D1
:1039200082003C2212A96846FCF757FE0F480FA9F7
:103930000EC900F0F5FB01F0C7FDFDF745FB0020C7
:103940000B4908700B4908700B49087001200B499E
:1039500008700B48FEF7E8FC08B1FDF78AFC09A0E7
:10396000FDF73CFC21B000BD9800002020030020A2
:103970001000002011000020120000201300002081
:10398000000200204D6F766520496E6974204F4B10
:103990000D0A00001CB5FDF741FB98B100202A4933
:1039A00008702A4908702A490870FDF7F1FAFDF7F6
:1039B00005FB01F089FD00202649087026A0FDF7CF
:1039C0000DFC1CBD2248007828B100202049087059
:1039D00024A0FDF703FC1C48007800B1F1E721E0CA
:1039E0009DF80000012804D0022803D0032817D135
:1039F00004E000BF684601F0B7FDE2E7002012498D
:103A000008701249087012490870FDF7C1FA01F0F8
:103A10005BFD00200F49087017A0FDF7DFFB00E0F9
:103A200000BF00BF6846FFF743FF0028D8D1094810
:103A3000007838B9FDF7E4FB01200649087012A0B0
:103A4000FDF7CCFB00BFBCE71000002011000020F8
:103A500012000020130000204D6F76652053544F54
:103A6000500D0A004D6F7665207461736B20646F92
:103A70006E650D0A0000000053746F70206D69734D
:103A800073696F6E0D0A00004D6F766520616C6C76
:103A900020646F6E650D0A0010B5044604B910BDB0
:103AA00017492068884200D0F9E7164800F0B6FAB6
:103AB0001548007818B9002014490870EFE701F0A4
:103AC000E5FD48B111480078052808D20F48007874
:103AD000401C0E49087002E000200C4908700B4899
:103AE0000078052809D300200749087007490870A5
:103AF00001200749087001F0E7FC00BFCFE7000094
:103B000000100040200300201000002011000020C1
:103B10001200002010B5044604B910BD0349206806
:103B2000884201D1FDF7DAFA00BFF6E70010014044
:103B300010B5044604B910BD03492068884201D17C
:103B400000F008F800BFF6E70010014000BFFEE7F4
:103B50007047000010B503480078FDF7CBFAFDF779
:103B6000BDFA10BD14000020704710B5FDF734FEFB
:103B700010BD00000348006840F47000014908606F
:103B80007047000088ED00E010B50248FEF77DFEAA
:103B900010BD0000B801002010B50248FEF775FE08
:103BA00010BD00000002002010B502682B4B9842A7
:103BB0000ED0B0F1804F0BD0294B984208D0294B42
:103BC000984205D0284B984202D0284B984203D106
:103BD00022F070024B681A43204B984220D0B0F17B
:103BE000804F1DD01E4B98421AD01E4B984217D0C2
:103BF0001D4B984214D01D4B984211D01C4B98423B
:103C00000ED01C4B98420BD01B4B984208D01B4B3C
:103C1000984205D01A4B984202D01A4B984203D1D1
:103C200022F44072CB681A4322F080034C6943EAC5
:103C300004028B68C3620B688362084B984202D00F
:103C40000A4B984201D10B690363036843F00403F4
:103C5000036001234361026010BD000000000140C9
:103C60000004004000080040000C00400004014037
:103C7000004001400044014000480140001800405D
:103C8000001C00400020004030B501F01F05012459
:103C900004FA05F3046A9C430462046A01F01F05F8
:103CA00002FA05F52C43046230BD30B50C4681683C
:103CB00021F47F4142EA032525432943816030BD39
:103CC00030B5026A056A25F010050562436884690B
:103CD00024F4E04424F440740D6844EA052422F0FE
:103CE00020028D6842EA0512124DA84200D103E07D
:103CF000114DA84207D100BF22F08002CD6842EAF0
:103D0000051222F040020B4DA84202D00A4DA842F3
:103D100009D123F4806323F400634D6943EA8503EA
:103D20008D6943EA8503436084614D68856302625F
:103D300030BD0000000001400004014010B5034602
:103D400099629A85DA8500205864222083F842001F
:103D5000186928B11868C06840F480701C68E06079
:103D60001868406940F001001C6860611868C0680C
:103D700040F020001C68E060002010BD10B5024833
:103D8000FEF7DEFF10BD00009002002000BFFEE73E
:103D900000B593B0302107A8FCF773FC142102A8EA
:103DA000FCF76FFC00BF002001902448006840F041
:103DB0008050224908600846006800F08050019059
:103DC00000BF00BF00BF002001901D48006840F404
:103DD00080401B4908600846006800F4804001905C
:103DE00000BF00BF012007900004089002200D9042
:103DF00041050E9104210F91A821109102211191EA
:103E00000421129107A8FDF701FF08B1FDF731FA6F
:103E10000F20029002200390002004904FF4A05045
:103E200005904FF480500690052102A8FDF7AEFDE5
:103E300008B1FDF71EFA13B000BD00004038024083
:103E40000070004080F85810704710B50446606E4E
:103E500060B9B4F84A100022E06CFDF785FBB4F8B5
:103E600050100022606DFDF77FFB1BE0606E0028A4
:103E70000CDDB4F84A100122E06CFDF775FBB4F8D4
:103E800050100022606DFDF76FFB0BE0B4F84A1094
:103E90000022E06CFDF768FBB4F850100122606D61
:103EA000FDF762FB94F8480028B9606E02F077FED7
:103EB0002168486318E094F84800042805D1606E32
:103EC00002F06DFE216888630EE094F8480008282F
:103ED00005D1606E02F063FE2168C86304E0606E85
:103EE00002F05DFE2168086410BD41667047000065
:103EF00030B52DED068B85B00546B0EE408AF0EE6C
:103F0000608AB0EE419A38EE680A30EE490A8DEDCB
:103F1000010A38EE280A30EE090A8DED020A38EE61
:103F2000280A30EE490A8DED030A38EE680A30EEB1
:103F3000090A8DED040A002440E004EB440101EB82
:103F4000041105EB011001F06FF8F0EE409A01A8A2
:103F500000EB840090ED000A30EE290AB0EE40AA92
:103F600005F5A36000EB8400C0ED009A01A800EB0A
:103F7000840090ED000A05F5A56000EB840080ED5B
:103F8000000A05F5A76000EB840080ED00AA04EBB1
:103F9000440101EB041105EB0110B0EE4A0A01F0F7
:103FA0004CF804EB440101EB041105EB011101F1A4
:103FB00068009FED070A01F0C9FF641C042CBCDBFC
:103FC000012085F8480505B0BDEC068B30BD00002A
:103FD0000000000011B52DED040B00F5A0619DE877
:103FE0001C000C311CC105B010BD70B504460D4657
:103FF00084F80855022D02D0002084F848050026D8
:1040000009E006EB460101EB061104EB011029461D
:1040100001F019F8761C042EF3DB70BD30B52DEDE0
:10402000048B85B00446F6EE000ABEEE000A04F2E8
:104030000C5002F089FDF6EE000ABEEE000A04F50F
:10404000A26002F081FDF7EE000ABFEE000A04F262
:10405000145002F079FD04F5806090ED430AB0EE53
:10406000408A04F20C5090ED010AF0EE408A90ED87
:10407000020ADFED290A20EE200AB0EE409A38EE5F
:10408000880A30EE490ADFED250A80EE201A8DED10
:10409000011A38EEC80A30EE090ADFED200A80EE78
:1040A000201A8DED021A38EEC80A30EE490ADFED0B
:1040B0001B0A80EE201A8DED031A38EE880A30EEC6
:1040C000090ADFED160A80EE201A8DED041A00258C
:1040D0000FE001A901EB8501D1ED000AB0EE600A05
:1040E00005EB450101EB051104EB011000F0A8FF01
:1040F0006D1C042DEDDB002508E005EB450101EB0F
:10410000051104EB011000F0A1FF6D1C042DF4DB80
:1041100005B0BDEC048B30BD48E1DABECDCC4C3DE2
:104120000FB430B5A7B004463D222BA904F5986022
:10413000FCF753FA9DF8E91084F8FD149DF8EA1095
:1041400084F8FE149DF8EB1084F8FF149DF8EC1031
:1041500084F800159DF8ED1084F801159DF8EE1017
:1041600084F802159DF8EF1084F803159DF8F010FF
:1041700084F804159DF8F11084F805159DF8F210E7
:1041800084F806153D222BA915A8FCF726FA9DF800
:10419000E9008DF891009DF8EA008DF892009DF8F5
:1041A000EB108DF893109DF8EC108DF894109DF89D
:1041B000ED108DF895109DF8EE008DF896009DF8A5
:1041C000EF108DF897109DF8F0108DF898109DF86D
:1041D000F1108DF899109DF8F2008DF89A00904832
:1041E00090490222CDE91112CDE9131001200021DE
:1041F0003C22CDE90F1018A96846FCF7EEF92046DD
:1042000015A90EC901F05AF800212046FFF71AFE41
:104210003D222BA915A8FCF7E0F99DF8E9008DF8DF
:1042200091009DF8EA008DF892009DF8EB108DF852
:1042300093109DF8EC108DF894109DF8ED108DF80A
:1042400095109DF8EE008DF896009DF8EF108DF812
:1042500097109DF8F0108DF898109DF8F1108DF8DA
:1042600099109DF8F2008DF89A006F486D49082268
:10427000CDE91112CDE9131004200F903C2218A9AA
:1042800010906846FCF7A9F904F5987015A90EC9B5
:1042900001F014F8012104F59870FFF7D3FD3D22D9
:1042A0002BA915A8FCF799F99DF8E9008DF8910064
:1042B0009DF8EA008DF892009DF8EB108DF89310B0
:1042C0009DF8EC108DF894109DF8ED108DF8951078
:1042D0009DF8EE008DF896009DF8EF108DF8971080
:1042E0009DF8F0108DF898109DF8F1108DF8991048
:1042F0009DF8F2008DF89A004C484A492022CDE9F9
:104300001112CDE91310102008213C22CDE90F1025
:1043100018A96846FCF761F904F5187015A90EC9CB
:1043200000F0CCFF012104F51870FFF78BFD3D2252
:104330002BA915A8FCF751F99DF8E9008DF891001B
:104340009DF8EA008DF892009DF8EB108DF893101F
:104350009DF8EC108DF894109DF8ED108DF89510E7
:104360009DF8EE008DF896009DF8EF108DF89710EF
:104370009DF8F0108DF898109DF8F1108DF89910B7
:104380009DF8F2008DF89A00294826498022CDE94F
:104390001112CDE9131040200C213C22CDE90F1061
:1043A00018A96846FCF719F904F5647015A90EC937
:1043B00000F084FF012104F56470FFF743FD002540
:1043C00028E005EB450101EB051104EB011101F1BA
:1043D00068009FED182ADFED181A9FED181ADFED1F
:1043E000180A9FED180A01F0BFFE05EB450101EB2D
:1043F000051104EB011101F1BC009FED132ADFED63
:10440000131A9FED0E1ADFED0D0AB0EE080A01F047
:10441000ABFE6D1C042DD4DB27B030BC5DF814FB63
:10442000E0000020000C0240280100207001002064
:10443000480200200000FA430000C84300000000CA
:1044400000000C4200005C42000096430000804FD8
:1044500070B5044604234FF498721249204601F0C7
:1044600022FF0446012084F8080504F5A0600E4BE5
:10447000D3E900219B680D4DC0E90413C2602ECD25
:1044800000F118062EC60A4D2ECD00F128062EC6C4
:10449000084D2ECD38302EC0002084F84805204627
:1044A00070BD000085530008D06B0008DC6B00086D
:1044B000EC6B0008FC6B000870B52DED0E8BF0EE78
:1044C00040AAF0EE609AB0EE41BAF0EE61BA04464E
:1044D0000D4604B11DB90020BDEC0E8B70BD9FEDE3
:1044E0003F9A9FED3F8A2AEEAA0AB0EE40CA09EE33
:1044F000A9CAB0EE4C0A09EE490A08EE480AF0EEE5
:10450000000A69EE200A60EE880AC0EE208A9FED5C
:10451000350AF4EEC08AF1EE10FA06DC9FED320A9D
:10452000F4EEC08AF1EE10FA01D20020D4E7B7EE23
:10453000000AF4EEC08AF1EE10FA04DDB7EE000ACC
:10454000F0EE408A0AE0BFEE000AF4EEC08AF1EE17
:1045500010FA03D2BFEE000AF0EE408AB0EE680A0D
:1045600001F0B4FEB0EE40AAB5EEC0BAF1EE10FA1A
:1045700003D2B1EE4A0AB0EE40AAF0EE6A0AB0EEFB
:10458000690A01F02FFFB0EE40EAB0EE4A0A02F0ED
:1045900051F8F0EE490A48EE000AB0EE60DAB0EEEB
:1045A0004A0A02F0EFF820EE080AF0EE40DAF0EEE8
:1045B0004D0A01F017FF3EEE400AF0EE40CAF0EE61
:1045C0006B0AB0EE6C0A00F0F7F8F0EE40CAC4EDEA
:1045D00000CA85ED00AA01207EE70000666626413C
:1045E0009A99E9404703803F470380BFF0EE400AB5
:1045F0009FED040A20EE801ADFED031A81EE210AF6
:1046000070470000DB0F494000003443F0EE400AE1
:104610009FED040A20EE801ADFED031A81EE210AD5
:104620007047000000003443DB0F49400146B1F5FC
:10463000FA7F02D24FF4FA70704740F6C4108142FC
:1046400000D9F9E70846F7E72DE9F04104460D46A1
:104650002646052E01D3BDE8F0812846FFF7E6FF88
:1046600005461948005D012818D1184810F8048043
:10467000174830F814702FB13A4629464046FCF7E7
:1046800037FC05E04FF4FA7229464046FCF730FC4F
:1046900006EB86000F4921F82050DCE714B1042C0A
:1046A00008D103E00C480068856304E00A4800680C
:1046B000456300E0CFE700BF06EB8600054921F81F
:1046C000205000BFC7E700000C6C0008116C000808
:1046D000166C0008280E0020B801002070B50546B1
:1046E0002C46052C01D3002070BD1748405D0128E1
:1046F00023D104EB8400154901EB8000007C08B94C
:104700000020F1E7FCF736FF04EB84010F4A02EBCF
:1047100081018968461A04EB8400114601EB800090
:10472000C0686430B04206D8002004EB840102EB7C
:1047300081010874D8E70120D6E704EB840003491F
:1047400001EB8000007CCFE70C6C0008280E0020F5
:1047500000B587B000BF002001901548006840F008
:104760002000134908600846006800F0200001900E
:1047700000BF00BF4FF4E0600290012003900020D2
:104780000490059002A90B48FCF7F4FD00224FF4B9
:1047900080710848FCF7E8FE012251020548FCF749
:1047A000E3FE012291020348FCF7DEFE07B000BDE4
:1047B000303802400014024005E09FED101A30EE40
:1047C000411AB0EE410A30EE601ADFED0D1AB4EE78
:1047D000E11AF1EE10FAF0DC05E09FED081A30EE78
:1047E000011AB0EE410A30EE601ADFED061AB4EE9F
:1047F000E11AF1EE10FAF0D370470000DB0FC94068
:10480000DB0F4940DB0F49C000B52DED088B85B0AB
:10481000B0EE40AAF0EE60AA3049888A00F09EFB14
:10482000B0EE40BA2E4890ED070AB0EE401A03A948
:1048300004A8F0EE4B1AF0EE6A0AB0EE4A0AFFF74F
:104840003BFE20B9002005B0BDEC088B00BD24481C
:1048500090ED060ADDED040A30EE600ADDED030A94
:1048600030EE608A9DED040A00F05EFBF0EE408AB7
:104870009DED030A00F03EFBB0EE409AB0EE480A10
:1048800000F0AAFBF0EE409A02A8B0EE680A00F031
:10489000FBF808B90020D6E701A8B0EE490A00F0FD
:1048A000F3F808B90020CEE76846B0EE690A00F0D8
:1048B000EBF808B90020C6E7BDF808100120FFF7A3
:1048C000C3FEBDF804100220FFF7BEFEBDF80010C5
:1048D0000320FFF7B9FE0120B5E70000280E0020F5
:1048E0008C0E002000200449087001200349087044
:1048F000002003490870704728000020290000208C
:104900002A00002010B504460CB9012000E0002068
:1049100002464FF480610248FCF726FE10BD0000FD
:104920000014024070B50446104844600068A0427C
:1049300004DC01200D490872012503E0FF200B492A
:10494000087200252A464FF400710948FCF70CFE56
:1049500000224FF480710648FCF706FE0020034950
:104960004872FCF707FE0149C86070BDAC0E00201C
:104970000014024010B54FF461724FF47A710220B6
:10498000FCF7F4F80C200149087010BD2A00002043
:1049900010B54FF42F724FF496610320FCF7E6F840
:1049A0000B200149087010BD2A00002010B54FF4FB
:1049B000617240F2AA510220FCF7D8F802200149A6
:1049C000087010BD2A00002010B54FF42F72044863
:1049D00001880320FCF7CAF804200249087010BDC2
:1049E000300000202A00002010B500224FF4807112
:1049F0000648FCF7B9FD00200549487208460068E2
:104A000048600020FFF77EFF10BD00000014024048
:104A1000AC0E002010B540F24C424FF496610220DB
:104A2000FCF7A4F808200149087010BD2A000020F6
:104A300010B54FF47A724FF4C8610320FCF796F872
:104A400009200149087010BD2A00002010B5014658
:104A5000052900D310BD0A4A125C012A07D10022A1
:104A600001EB8103074C04EB83031A74F2E7002285
:104A700001EB8103034C04EB83031A7400BFE9E7E5
:104A80000C6C0008280E0020014609B90020704770
:104A9000DFED0D0AB4EEE00AF1EE10FA06D3DFED19
:104AA0000B0AB4EEE00AF1EE10FA01DD0020EEE7A9
:104AB000F6EE000A70EE200AFCEEE00A10EE900A14
:104AC00008800120E3E700000000FA4300401C4595
:104AD00010B54FF4FA724FF4C8610420FCF746F8A1
:104AE00005200149087010BD2A00002070B52DED89
:104AF000048BB0EE408AF0EE608A04460D4638EE34
:104B0000280AB0EE409A8CB1B0EE480A01F092FD4E
:104B1000DFED110A60EE209AB0EE490A01F08AFD3D
:104B2000DFED0E0A40EE809AC4ED009A8DB1B0EE32
:104B3000480A01F027FEDFED080A60EE209AB0EE89
:104B4000490A01F01FFEDFED050A40EE809AC5ED2F
:104B5000009ABDEC048B70BD666626419A99E940C7
:104B600070B5FCF707FD04461948C068251A1848B7
:104B7000407AC8B91648006815494968884201D189
:104B8000012070BD15B3012211021248FCF7ECFCA4
:104B900001200F4948720846C460006891F9081066
:104BA00008440B49086011E085B100224FF4807180
:104BB0000848FCF7D9FC0020054948720846C46043
:104BC00000684968884201D10120DAE70020D8E76F
:104BD000AC0E00200014024010B54FF4617240F694
:104BE00098010120FBF7C2FF0D200149087010BD9C
:104BF0002A00002010B54FF461724FF4AF6101201C
:104C0000FBF7B4FF03200149087010BD2A00002003
:104C100010B54FF4FA724FF496610420FBF7A6FF2B
:104C20000A200149087010BD2A00002070B52DED42
:104C3000048B84B03048848A058D868F204600F02E
:104C40008DF9F0EE408A284600F036F9B0EE408A41
:104C5000304600F0A1F9B0EE409A02A903A8F0EEA8
:104C6000480AB0EE680AFFF741FF9DED020AF1EE37
:104C70000C0A30EE200AF0EE409A694601A8F0EEE8
:104C8000681AB0EE481AF0EE690A9DED030AFFF7C4
:104C900013FC20B9002004B0BDEC048B70BD0120D2
:104CA000FFF7D4FE0220FFF7D1FE0320FFF7CEFE70
:104CB000012012490870FCF75DFC104948604FF470
:104CC000FA6088609DED030A084680ED030A9DEDB9
:104CD000020A80ED040AB1EE0C0A80ED050A38EEF6
:104CE000880A30EE090A80ED060A80ED078A062060
:104CF000034908700120CEE7280E00208C0E00200A
:104D00002A0000202DE9F04705462C46052C01D34A
:104D1000BDE8F0872748405D012800D1F8E704EBA3
:104D20008400254901EB8000007C00B9F0E7FCF726
:104D300021FC04EB8401204A02EB81018968461AB8
:104D400004EB8400114601EB8000C068B0420FD82C
:104D500004EB840002EB800081882846FFF774FC96
:104D6000002004EB8401144A02EB81010874CFE7B0
:104D700004EB8400104901EB8000478804EB8400B9
:104D800001EB8000B0F80480A8EB070909FB06F0EE
:104D900004EB8401084A02EB8101C96890FBF1F041
:104DA00000EB070A1FFA8AF12846FFF74DFC00BF07
:104DB000AEE700000C6C0008280E002010B541F290
:104DC000941240F698010120FBF7D0FE072001491C
:104DD000087010BD2A00002010B52DED028B24486C
:104DE000007818B90120BDEC028B10BDFCF7C2FBA6
:104DF0001F494968441A1E48806810B9B7EE008AF6
:104E000011E01B488068A04202D8B7EE008A0AE091
:104E1000174890ED020AF8EE400A00EE104AB8EE8C
:104E2000400A80EE208A124890ED040AD0ED050A6F
:104E3000F0EE408A40EE888AD0ED030AB0EE600AB8
:104E4000F0EE680AFFF7E0FC20B90020084908707E
:104E50000120C8E7B7EE000AB4EEC08AF1EE10FAFE
:104E600004DB0020024908700120BCE70020BAE7FB
:104E70008C0E002010B5FFF7B7FD00200549086033
:104E80004860054908700120044908700020044961
:104E9000087010BDAC0E002032000020330000204E
:104EA0003400002010B5002403E0E0B2FFF72AFF31
:104EB000641C052CF9D310BD10B52DED028B0446F2
:104EC00000EE104AB8EE400ADFED080A30EE600A44
:104ED000DFED070A20EE200AB0EE408AB0EE480A65
:104EE000FFF784FBBDEC028B10BD00000000964470
:104EF0006666E63D10B52DED028BB0EE408AB0EE51
:104F0000480AFFF783FBF0EE408ADFED050A88EEE2
:104F1000A00ADFED040A30EE200ABDEC028B10BDC2
:104F20006666E63D0000964410B52DED028BB0EEAE
:104F3000408AB0EE480AFFF769FBF0EE408ADFEDE9
:104F4000050A88EEA00ADFED040A30EEC00ABDECC7
:104F5000028B10BD9A99193E0000164510B52DED33
:104F6000028B044600EE104AB8EE400ADFED080A54
:104F700030EEC00ADFED070A20EE200AB0EE408ACC
:104F8000B0EE480AFFF732FBBDEC028B10BD00000B
:104F9000000016459A99193E10B52DED028B044676
:104FA00000EE104AB8EE400ADFED090A30EE600A62
:104FB000B1EE400ADFED070A20EE200AB0EE408A8B
:104FC000B0EE480AFFF712FBBDEC028B10BD0000EB
:104FD00000007A446666E63D10B52DED028BB0EE1A
:104FE000408AB0EE480AFFF711FBF0EE408ADFED91
:104FF000050A88EEA00ADFED040A30EEC00ABDEC17
:10500000028B10BD6666E63D00007A4410B54FF491
:10501000FA724FF496610420FBF7A8FD01200149C4
:10502000087010BD2A00002090ED4A0A704790EDEC
:10503000480A704790ED4B0A704780ED4B0A704765
:1050400080ED490A704780F81811704730B52DED92
:10505000028B81B004460025D4F81001A8B1D4F821
:1050600010211268506AD4F810211268D16AB1F583
:10507000803F04D2B4F81421821A15B202E0D4F8A9
:105080001421851AC4F8140100BF94F8580000B91F
:105090006D4294ED470AB5EEC00AF1EE10FA16DD46
:1050A00094ED471A00EE905AF8EEE00AC0EE811A2D
:1050B000B0EE610AD4ED4A0A70EE800AC4ED4A0AE5
:1050C000DFED7A0A80EE201A84ED481A03E09FEDA6
:1050D000780A84ED480A0020009094F8180180B9FD
:1050E000D4ED490A94ED180AB8EEC00A20EE800A01
:1050F000D4ED170A80EE201ABDEEC10A8DED000A2C
:10510000ADE094F81801012848D1D4ED480AB0EE7A
:10511000600A04F1680001F058F8D4ED490AB0EED5
:10512000600A04F1680000F00BFF04F1680000F071
:1051300011FF04F1680001F045F8B0EE408A94EDEB
:10514000490ADFED5C0AB4EEE00AF1EE10FA09DD7F
:10515000B5EEC08AF1EE10FA1BD29FED550AB0EE03
:10516000408A16E094ED490ADFED530AB4EEE00AF6
:10517000F1EE10FA09D2B5EEC08AF1EE10FA08DDB0
:105180009FED4B0AB0EE408A03E09FED490AB0EE76
:10519000408ABDEEC80A8DED000A60E094F818015F
:1051A00002285CD1D4ED4B0AB0EE600A04F1BC00D9
:1051B00000F0C6FED4ED4A0AB0EE600A04F1BC006D
:1051C00001F003F804F1BC0000F0C4FE04F1BC00DF
:1051D00000F0F8FFB0EE408AB0EE480A04F1680033
:1051E00000F0AEFED4ED480AB0EE600A04F16800AB
:1051F00000F0EBFF04F1680000F0ACFE04F1680081
:1052000000F0E0FFF0EE408A9FED2A0AB4EEC08A7B
:10521000F1EE10FA09DDF5EEC08AF1EE10FA19D2BE
:105220009FED230AF0EE408A14E09FED230AB4EECE
:10523000C08AF1EE10FA09D2F5EEC08AF1EE10FA4A
:1052400008DD9FED1B0AF0EE408A03E09FED180A8F
:10525000F0EE408ABDEEE80A8DED000A00BF226E36
:105260005142684601F084FC94F8180178B1616EEF
:10527000009A501A502803DD616E5031009105E00C
:1052800010F1500F02DA616E5039009100BF226EAA
:105290005142684601F06CFC009860662046FEF7BB
:1052A000D4FD01B0BDEC028B30BD00000AD7A33C99
:1052B00000000000CDCC4C3DCDCC4CBD0FB42DE951
:1052C000F04704461BAD95E8E0073D2209A92046BA
:1052D000FBF783F99DF8610084F83D009DF86200BA
:1052E00084F83E009DF863103F2001559DF864103E
:1052F000402001559DF86510412001559DF866003C
:1053000084F842009DF86710432001559DF868100D
:10531000442001559DF86910452001559DF86A000B
:105320004434A0702571E680A760A4F80C80C4F80E
:105330001090C4F8CCA09FED120A84ED370A2179B1
:10534000443C2046FDF768FCD4F8100180B10020F1
:10535000D4F81011096848623C21D4F81001FDF717
:105360002DFAD4F810010068406AC4F8140102E074
:105370000020C4F81401BDE8F0075DF814FB00003C
:105380000000000010B50446002184F858109FED7D
:10539000190A84ED170A40F2E7312166002104F171
:1053A0006800616600F014FFA0F16804543000F05A
:1053B0000FFFA0F1BC040020C4F81001C4F81401D0
:1053C000012084F818019FED0C0A84ED470A9FED37
:1053D0000B0A84ED480A9FED090A84ED490A9FED06
:1053E000070A84ED4A0A9FED050A84ED4B0A204620
:1053F00010BD000022D1D94127745F430000000096
:1054000010B52DED028B04467CB900F05DF800204C
:105410001F4908701F49087001201F4908700020AB
:105420001E490870BDEC028B10BD00EE104AB8EEAC
:10543000C00ADFED1B0A20EE200ADFED1A0A80EE1B
:10544000208A9FED190A28EE000ADFED180AC0EE47
:10545000208A00F06BF902211548FEF7C6FDB0EE78
:10546000681ADFED140A9FED130A1148FEF740FD9C
:105470000120074908700020064908700649087095
:10548000064908700CA0FBF7A9FE00BFCAE70000A0
:105490001000002011000020120000201300002046
:1054A000DB0F49400000344348E1DA3ECDCC4C3DAF
:1054B0002003002000000000537461727420726F9A
:1054C000746174650D0A00003EB59FED250A8DEDEF
:1054D000000A9FED230A8DED010A9FED210A8DED53
:1054E000020A9DED021ADDED010A9DED000A1D483C
:1054F000FEF770FD01211B48FEF777FD00242BE02D
:1055000004EB440101EB0411164A02EB01109FED7C
:10551000140AFFF795FD04EB440101EB0411114A55
:1055200002EB011101F168009FED0D0A00F00EFD84
:1055300004EB440101EB04110A4A02EB01100021C3
:10554000FEF7D3FC04EB440101EB0411054A02EB26
:105550000110FEF77AFC641C042CD1DB3EBD000078
:10556000000000002003002010B5044604B910BD5F
:105570002078012802D002280AD104E0217960882D
:1055800000F00AF805E0B4F90200FFF739FF00E087
:1055900000BF00BF00BFEAE770B52DED068B0646E1
:1055A0000C467CB9FFF790FF00202A4908702A4971
:1055B0000870012029490870002029490870BDECB5
:1055C000068B70BD4FF4B470B6FBF0F100FB1165B3
:1055D00000EE105AB8EE400ADFED220A20EE200A53
:1055E000DFED210AC0EE208A00EE104AB8EE400A34
:1055F000DFED1E0A20EE209A9FED1D0A89EE008A3B
:10560000B0EE680A01F016F860EE089AB0EE680A8B
:1056100001F0B8F820EE08AA00F088F80221154839
:10562000FEF7E3FC9FED141AF0EE4A0AB0EE690AA9
:105630001048FEF75DFC012006490870002006496D
:10564000087006490870064908700CA0FBF7C6FDF3
:1056500000BFB4E71000002011000020120000205D
:1056600013000020DB0F4940000034430AD7233CDD
:10567000CDCC4C3D2003002000000000537461722B
:1056800074206D6F76650D0A0000000010B52DEDD9
:10569000048B00243FE004EB440101EB0411204A99
:1056A00002EB0110FFF7C6FCB0EE409A04EB440198
:1056B00001EB04111A4A02EB0110FFF7B5FC39EEB9
:1056C000400AB0EE408A04EB440101EB0411144A95
:1056D00002EB0110FFF7ABFCF0EE408AB0EE480A97
:1056E00000F03AF8DFED0F0AB4EEE00AF1EE10FA3E
:1056F00003DD0020BDEC048B10BDB0EE680A00F0A5
:105700002BF8DFED090AB4EEE00AF1EE10FA01DD44
:105710000020EFE7641C042CBDDB0120EAE7000059
:1057200020030020CDCC4C3D9A99193F10B50024A0
:105730000DE004EB440101EB0411064A02EB0111F8
:1057400001F1BC00B2EE000A00F0FDFB641C042C69
:10575000EFDB10BD20030020F0EE400AF5EEC00A9A
:10576000F1EE10FA02DBB0EE600A7047B1EE600AAB
:10577000FBE700007CB506460C461546002000906D
:105780000190092E4AD008DC022E0DD0032E1DD028
:10579000052E2AD0072E50D12FE00A2E42D00B2EF4
:1057A00027D0552E49D141E0032D00D27CBD0120E8
:1057B0008DF80000204600F052F8ADF80200A17804
:1057C0008DF804106846FBF75BFC37E0022D00D231
:1057D000ECE702208DF80000204600F039F8ADF823
:1057E00002006846FBF74CFC28E0012015490870D0
:1057F00024E001201449087020E0012013490870BA
:1058000000201049087010490870FBF7C1FB032005
:105810008DF800006846FBF733FC0FE00020FBF733
:105820000DFD0BE00120FBF709FD07E004208DF8DA
:1058300000006846FBF724FC00E000BF00BF00BF8B
:10584000B4E70000260000202700002024000020EC
:10585000014608784B7840EA032210B270470146AF
:105860000A784B7842EA032070470146092918D08C
:1058700008DC02290DD003290DD005290DD00729F8
:1058800017D10CE00A290ED00B290ED0552910D1C2
:105890000DE0032070470220FCE70020FAE700201B
:1058A000F8E70020F6E70020F4E70020F2E7002008
:1058B000F0E70020EEE7000030B5026A056A25F047
:1058C000010505624368846924F0700424F0030430
:1058D0000D682C4322F002028D682A43104DA84225
:1058E00000D103E00F4DA84206D100BF22F008020C
:1058F000CD682A4322F00402094DA84202D0094D86
:10590000A84207D123F4807323F400734D692B431D
:105910008D692B43436084614D684563026230BDED
:10592000000001400004014030B5026A056A25F418
:10593000807505624368C46924F0700424F0030490
:105940000D682C4322F400728D6842EA0522124D44
:10595000A84200D103E0114DA84207D100BF22F4B4
:105960000062CD6842EA052222F480620A4DA84214
:1059700002D00A4DA84209D123F4805323F40053E6
:105980004D6943EA05138D6943EA05134360C46119
:105990004D68C563026230BD000001400004014053
:1059A00030B5036A056A25F4805505624468C2690A
:1059B00022F4E04222F440720D6842EA052223F408
:1059C00000538D6843EA0533084DA84202D0084DC4
:1059D000A84204D124F480444D6944EA851444600B
:1059E000C2614D680564036230BD000000000140E3
:1059F000000401400A46816821F0700142F007036B
:105A000019438160704730B50B461446026A056A37
:105A100025F001050562816921F0F00141EA0411D8
:105A200022F00A021A438161026230BD30B50B4692
:105A30001446026A056A25F010050562816921F4A1
:105A4000704141EA043122F0A00242EA031281616E
:105A5000026230BD2DE9F84F04462068006920F449
:105A60004050E1680843216808612169A068084343
:105A700061690843E169084300902068C06849F201
:105A80000C618843009908432168C8602068406918
:105A900020F44070A1690843216848617649206874
:105AA000884203D075492068884203D1FCF746F844
:105AB000814602E0FCF732F88146E069B0F5004F1C
:105AC0006CD102206168A0FB015003461920A9FB9C
:105AD000007001462A463846FAF7CCFB6421B0FB39
